:020000040800F2
:10000000185300203D5100081F4F0008214F0008E1
:10001000254F0008294F00082D4F00080000000060
:10002000000000000000000000000000A501000822
:10003000314F000800000000E901000863390008A2
:1000400061510008615100086151000861510008C8
:1000500061510008615100086151000861510008B8
:1000600061510008615100086151000861510008A8
:100070006151000861510008615100086151000898
:100080006151000861510008615100086151000888
:100090006151000861510008615100086151000878
:1000A0006151000861510008615100086151000868
:1000B0006151000861510008615100086151000858
:1000C0006151000861510008615100086151000848
:1000D0006151000861510008094F00086151000892
:1000E0006151000861510008615100086151000828
:1000F0006151000861510008615100086151000818
:100100006151000861510008615100086151000807
:1001100061510008615100086151000861510008F7
:1001200061510008615100086151000861510008E7
:1001300061510008615100086151000861510008D7
:1001400061510008615100086151000861510008C7
:1001500061510008615100086151000861510008B7
:1001600061510008615100086151000861510008A7
:100170006151000861510008615100086151000897
:100180006151000861510008DFF80CD007F0E6F873
:10019000004800475D0B00081853002040BA704724
:1001A000C0BA7047234B19680868B0E8F04F80F375
:1001B00009884FF0000080F31188704700000000AC
:1001C00003480068006880F3088862B600DF00BF5B
:1001D00008ED00E0DFF80C00016841F470010160F7
:1001E000704700BF88ED00E0EFF30980114B1A68FB
:1001F0001EF0100F08BF20ED108A20E9F04F1060AC
:1002000008B54FF0500080F3118802F09EFD4FF0CA
:10021000000080F31188BDE8084019680868B0E85C
:10022000F04F1EF0100F08BFB0EC108A80F3098861
:10023000704700BF880000204FF0500080F3118805
:1002400070474FF0000080F31188704700B589B007
:100250000121080204F054F90121084604F00CF9C8
:100260000120019003208DF8080000208DF80B007C
:1002700001A9FB4803F0BAFE03F018FC0020079028
:10028000039001208DF811000020069005900120B8
:100290008DF8200000208DF8100003A9F14803F02C
:1002A00010FC0121EF4803F052FC0623012200213B
:1002B000EC4803F08CFC09B000BD10B5E94803F030
:1002C000E2FC00BF0221E74803F0FEFD0028F9D060
:1002D000E44803F014FD10BD014600BFE248008968
:1002E00000F002000028F9D0DF48818100BFDE481D
:1002F000008900F001000028F9D0DB488089C0B2F5
:10030000704770B52DED068B044600EE104AB8EE2E
:10031000C00ADFEDD60A30EE600AD548D0ED000AFB
:1003200080EE201AB0EE418AB0EE480A07F016F9C6
:1003300010EE105A284606F00EFE41EC1A0B9FED07
:10034000CD0B53EC102B06F00CFD41EC190B06F015
:1003500045FE00EE100ABDEC068B70BD08B51021FD
:10036000BF4803F0C1FE1020FFF7B6FF0020FFF7E3
:10037000B3FFADF800000020FFF7AEFFADF80200BC
:100380001021B74803F0AEFEBDF90210BDF9002000
:1003900041EA02214811FFF7B4FFB84880ED000A96
:1003A00008BD10B54EF6030005F06CFA10BD70B52F
:1003B00004460125208830B1D12808D0D22813D096
:1003C000DA2845D135E000BFD120208000BF0D22C2
:1003D000ABA1204604F099FF08B9002070BD00BF12
:1003E00000BFD220208000BF0A21204605F022F85D
:1003F00008B90020F2E700BF0A2204F1240104F149
:100400002E0006F09BFCA2490A22886804F12E0106
:1004100006F094FC9F48006802F023FD9E48007897
:10042000512802D110209D49087000BFDA20208099
:1004300000BF04F12E0006F08DFC0646324604F1A2
:100440002E01204604F061FF08B90020C6E700BF76
:100450000025002020800220C0E710B590480068E9
:1004600000F11C048D48007800F0400028B10A22F9
:1004700004F12401204605F067F82046FFF797FFB6
:1004800010BD8848D0E900305A1C40F10000854971
:10049000C1E9002070478448D0E900305A1C40F17F
:1004A00000008149C1E900207047FFF7C5FE00BF89
:1004B000FEE708B502F0CEFD009006E0FFF74EFF24
:1004C0004FF41671684602F07BFBF7E708B502F0BF
:1004D000C1FD009008E0FFF7F0FE744908604FF49A
:1004E0001671684602F06CFBF5E7002500BF47F285
:1004F000305002F0A9FB681CC5B2002419E000BF0F
:10050000C4EBC40000EB4000694901EB8000644982
:100510000860022005F0EEF900BF66480088002858
:1005200006DD06F006FB63480188634800F077FFAC
:10053000641C282CE3D3322DD9DB002506F0DFF92B
:10054000D5E708B502F086FD00903BE04FF4D2718C
:10055000594800F09AFF574908800846008800284B
:1005600029DD4FF4006005F070F85349898988420D
:100570000ED1012005F0BEF94E48008800281ADD92
:1005800006F0D7FA4B4801884B4800F048FF12E0CC
:1005900040F6060005F059F84749898988420AD192
:1005A00006F05BFA43480088002804DD41480188D2
:1005B000414800F034FF03F0B9F94FF41671684672
:1005C00002F0FEFAC2E7704705462C4600235A1E89
:1005D00019463A48006801F0A2FE27E0A06B02F03D
:1005E000EAFB206C02F0E7FB606B02F03AFC2F485C
:1005F000006864281ADA9FED320A84ED080A606BFD
:1006000002F0D9FBA06B02F02CFC00231A4619461D
:100610002A48006801F0A2FD002002F0CCFB002374
:100620005A1E19462548006801F079FED6E770B5D4
:1006300002460C4600210023012545E0505C3A2883
:1006400040DC505C30283DDB08464E1CF1B2105CAB
:1006500003EB830600EB4600A0F1300334E000001A
:1006600000000240002001400030014000008044B2
:1006700000000020F8C1631ADCA54C4040000020B7
:10068000496E636C696E6F6D657465720A00000077
:10069000F001002034000020FC010020380100207F
:1006A0003C0100200800002018000020600000200D
:1006B0001841002034010020703F00206400002019
:1006C00000000000002070BD505C0028B6D100EE94
:1006D000103AB8EE400A84ED000A0120F3E73CB579
:1006E0000025012000EE900A01243FE0FB48005D58
:1006F0000D2804D02D2814D048282DD116E0002034
:100700000DF80500F6496846FFF791FFF4482438D4
:1007100090ED090AB8EEE01A20EE010A80ED090A10
:100720003CBD4FF0FF3000EE900A1DE000200DF8B8
:100730000500EC496846FFF77AFFEA48243890ED57
:10074000090AB8EEE01A20EE010A80ED090A01203C
:1007500000EE900A002507E0E048025D2846691C8B
:10076000CDB20DF8002000BF00BF641C0A2CBDDB19
:1007700000BFD5E710B5044694ED090AD4ED080A88
:1007800030EE600AB5EEC00AF1EE10FA14DB94ED1B
:10079000090AD4ED080A30EE600ADFEDD30AB4EEA0
:1007A000E00AF1EE10FA03D8012084F82C0017E0DB
:1007B000002084F82C0013E094ED090AD4ED080A17
:1007C00030EE600ADFEDC90AB4EEE00AF1EE10FA8D
:1007D00003DB002084F82C0002E0012084F82C00C8
:1007E00094F82C0020B16188A06803F07BFC03E042
:1007F0006188A06803F078FC10BD10B5B748007898
:10080000413813287ED2DFE800F02030406986BDF1
:10081000CF7DFDFC7D7D7D7D7D7D7D0A1500B04910
:100820002439886B02F0C7FAAD492439486B02F0CD
:1008300018FB66E1AA492439486B02F0BCFAA849C2
:100840002439886B02F00DFB5BE1A6492439886BE3
:1008500002F0B1FAA3492439086C02F0ACFAA149BC
:100860002439486B02F0FDFA4BE19E492439486B6C
:1008700002F0A1FA9B492439086C02F09CFA9949CC
:100880002439886B02F0EDFA3BE196482438D0ED2C
:10089000080A90ED091A70EE810AB0EE600A00F0C5
:1008A00074FE9048243880ED090A90ED030AB5EEF5
:1008B000C00AF1EE10FA01D1FFF75CFF8949243933
:1008C000486B02F078FA87492439886B02F073FA92
:1008D00084492439086C02F0C4FA12E181482438B2
:1008E00090ED030AB5EEC00AF1EE10FA01D1FFF760
:1008F00041FF7C492439486B02F05DFA794924397B
:10090000886B00E0FCE002F056FA76492439086C66
:1009100002F0A7FAF5E07248243890ED080AD0ED0D
:10092000090A30EE200A80ED090A90ED090ADFED90
:10093000700AB4EEE00AF1EE10FA02DD9FED6C0AE7
:100940000FE06748243890ED090AB5EEC00AF1EED1
:1009500010FA02D21FEDA60A03E06148243890ED98
:10096000090A5F48243880ED090AFFF703FF5C4954
:100970002439086C02F075FA59492439086C02F0E0
:1009800070FABEE05648243890ED090ADFED590AA6
:1009900030EE200A80ED090AFFF7ECFE50492439B9
:1009A000086C02F05EFAACE04E482438D0ED080A3C
:1009B00090ED091A70EE810AB0EE600A00F0E5FDD4
:1009C0004848243880ED090A90ED030AB5EEC00AC4
:1009D000F1EE10FA01D1FFF7CDFE4148243890ED39
:1009E000080AD0ED090A30EE200A80ED090A90EDE0
:1009F000090ADFED3F0AB4EEE00AF1EE10FA05DD78
:100A000001E05AE02DE09FED3A0A0FE03448243827
:100A100090ED090AB5EEC00AF1EE10FA02D21FED10
:100A2000D80A03E02E48243890ED090A2C482438CF
:100A300080ED090AFFF79EFE2A492439486B02F02F
:100A4000BAF928492439886B02F0B5F925492439C7
:100A5000086C02F006FA22492439086C02F001FA07
:100A60004FE02048243890ED030AB5EEC00AF1EEBD
:100A700010FA01D1FFF77EFE1948243890ED090ADB
:100A8000DFED1C0A30EE200A80ED090AFFF772FE46
:100A900014492439486B02F08EF912492439886BC5
:100AA00002F089F90F492439086C02F0DAF90C498F
:100AB0002439086C02F0D5F923E00F4890ED000AC4
:100AC000DFED0C0A30EE200A0548243880ED080AD4
:100AD0000A48006802F0C5F913E00000FC0100209C
:100AE00084010020CC01002000003443000034C306
:100AF00000000C4300008C424000002068000020F1
:100B000000BF00BF10BD0446254600235A1E1946EB
:100B1000EE48006801F003FC14E0FFF7E0FDFFF78A
:100B20006CFE00231A461946E848006801F016FBDF
:100B3000286802F040F900235A1E1946E34800686D
:100B400001F0EDFBE9E708E0E1480088401CE049DE
:100B5000088044F6206002F077F8F5E700B587B02A
:100B600004F07FFA00F0D9FE00F005FF00F0ECFE83
:100B700000F0ABFF4FF42041D64803F0B3FA4FF436
:100B8000A071D54803F0AEFAFFF760FB012001F039
:100B90005CFBCE4908609FEDD10AD14880ED030A85
:100BA0009FEDCE0A80ED080A012001F04EFBCC49F2
:100BB00048649FEDCA0A084680ED090AB0EE080AAB
:100BC00080ED040A9FEDC70A80ED060A9FEDC50A75
:100BD00080ED050A4FF40050488040000880400036
:100BE0008880BC488860002081F82E0081F82D00A4
:100BF000012081F82C009FEDBC0A084680ED0A0A0E
:100C00009FEDB60AB94880ED030A1FED460A80ED54
:100C1000080A012001F019FBB44948649FEDB40AA9
:100C2000084680ED090AB0EE080A80ED040AB2EE2B
:100C3000040A80ED060AB2EE040A80ED050A40209F
:100C400048808020088040008880A3488860002079
:100C500081F82E0081F82D00012081F82C009FEDF5
:100C6000A20A084680ED0A0AA248A34988609C4867
:100C700048609E480860A14903C9CDE9050105A85F
:100C800000F0E8FA04F02EFD05F022FEFFF789FBE4
:100C900000BF9DF814009A4908709DF8150048702F
:100CA0009DF8160088709DF81700C8709DF8180010
:100CB00008719DF81900487100BF00BF4AF6C000D6
:100CC000ADF8100044F20110ADF8120000BF00BFF3
:100CD000BDF810008B490880BDF81200488000BFA5
:100CE00000BF4AF6C000ADF8100040F20110ADF8A8
:100CF000120000BF00BFBDF8100083490880BDF896
:100D00001200488000BF00BF4FF6FF70ADF8100022
:100D1000FF20ADF8120000BF00BFBDF810007B49F6
:100D20000880BDF81200488000BF0020784A0123E7
:100D3000CDE901200093039003464FF4807275A122
:100D4000AFF6770001F03DFD0020754A0123CDE9A3
:100D500001200093039003464FF4807271A1AFF617
:100D6000AD0001F02EFD00200123CDE900300290FE
:100D700003464FF482726FA10390AFF6910001F029
:100D800020FD00200123CDE90030029003464FF4FE
:100D900000726AA10390AFF6550001F012FD002227
:100DA0004F4830300123CDE90102009303924C4BB0
:100DB000822263A1664801F004FD4949086B01F0F5
:100DC000FAFF0022464834300123CDE901020093A6
:100DD0000392434B82225FA1624801F0F2FC40493A
:100DE000486B01F0E8FF00223D4838300123CDE98F
:100DF0000102009303923A4B82225BA15E4801F00C
:100E0000E0FC3749886B01F0D6FF002234484030BF
:100E10000123CDE9010200930392314B4FF480721C
:100E200056A15B4801F0CDFC2D49086C01F0C3FFD1
:100E300000222E4840300123CDE9010200930392A5
:100E40002A4B822253A1524801F0BBFC2749086C6F
:100E500001F0B1FF0021254830300123CDE9010127
:100E600000930391214B82224EA1394801F0A9FC45
:100E70001E49086B01F09FFF00204E4A0123CDE977
:100E8000012000930390134682224BA1AFF28930D8
:100E900001F097FC4748006801F08DFF00204A4AA6
:100EA0000123CDE90120009303900D4B822247A13D
:100EB000AFF6EB0001F085FC4348006801F07BFFD2
:100EC00002F09BF8002007B000BD00006400002085
:100ED0006C000020000402400008024000000000F6
:100EE000A80100200000F042EC51B83C6001002055
:100EF00000007042FC010020F0010020288A000858
:100F000024010020180100201C01002020010020E5
:100F10002400002076486F6C6C615F414443000000
:100F20002C00002076436F6D70617373416E6449CD
:100F30006E63000075495070000000007549500054
:100F400076446F756E546F6F676C65426974730099
:100F50003B1E000876446F756E416363656C537485
:100F600061727400C91B000876446F756E4163633B
:100F7000656C53746F700000811C000876446F75B7
:100F80006E53746F705769746852756E000000007C
:100F90003D1D000876557053746F70576974685220
:100FA000756E0000765570546F6F676C654269749A
:100FB0007300000034000020764D61696E5368654F
:100FC00064756C6572000000680000207643616CF7
:100FD000696272617465416E676C650010B50446A4
:100FE00000BF0221FE4803F046FD0028F9D021464B
:100FF000FB4803F009FD00BF0121F94803F03BFD68
:101000000028F9D0F64803F0FCFCC0B210BD70B562
:1010100005460C464FF40041F24803F065F804F031
:101020001F0141EA0500FFF7D9FF04F0800010B16D
:10103000FF20FFF7D3FFFF20FFF7D0FF06464FF456
:101040000041E84803F04EF8304670BD70B50446E4
:101050000D4616464FF40041E24803F045F805F00E
:101060001F0141EA0400FFF7B9FF3046FFF7B6FF62
:101070004FF40041DB4803F035F870BD08B54FF47C
:101080000041D84803F030F8FF20FFF7A7FF4FF4E6
:101090000041D44803F026F80020D349087000909E
:1010A00002E00098401C009044F6206100988842BD
:1010B000F7D308BD70B5054605F01F001B2811DAEF
:1010C000C5F34114C848007884420BD003221F2185
:1010D000A020FFF7BBFF22461F218020FFF7B6FFAD
:1010E000C148047070BD10B504462046FFF7E2FF0A
:1010F00021460020FFF78BFF10BD70B50446204647
:10110000FFF7D8FF21460020FFF781FF0546601C4E
:10111000C1B20020FFF77BFF45EA002070BD70B52B
:1011200004460D462046FFF7C5FF2A4621464020CB
:10113000FFF78CFF70BD70B504460D462046FFF7E3
:10114000B9FFEAB221464020FFF780FF2A12601C57
:10115000C1B24020FFF77AFF70BD70B504460D465E
:101160002046FFF7A7FF2A462146A020FFF76EFF83
:1011700070BD70B504460D462046FFF79BFF2A461A
:1011800021468020FFF762FF70BD70B504460D4612
:101190004FF40041934802F0A7FF3A20FFF71EFFEB
:1011A00004E0FF20FFF71AFF04F8010B281EA5F149
:1011B00001018DB2F5D14FF400418A4802F092FF4F
:1011C00070BD70B504460D464FF40041854802F0ED
:1011D0008BFF7A20FFF702FF03E014F8010BFFF703
:1011E000FDFE281EA5F101018DB2F6D14FF400419C
:1011F0007C4802F077FF70BD10B504462146D4202C
:10120000FFF78DFF0121D220FFF7B3FF00BFEA20D7
:10121000FFF769FF00F001000028F8D10121D2207A
:10122000FFF79BFFD820FFF768FF10BD70B504469D
:101230000D462146D420FFF772FF2946D620FFF73E
:101240007AFF00BFEA20FFF74EFF00F00100002800
:10125000F8D170BD30B589B004460121042003F0F7
:101260000BF90121084603F007F90121C80303F037
:1012700036F94FF4E050079002208DF8200000204E
:101280008DF8220002208DF8210001208DF8230026
:1012900007A9564802F0AAFE06220A21534802F086
:1012A00030FF06220B21514802F02BFF06220C21B1
:1012B0004E4802F026FF4FF40040059001208DF8C3
:1012C000180000208DF81A0002208DF8190005A9D9
:1012D000444802F08BFE0820ADF80C000020ADF869
:1012E00000004FF48270ADF802000020ADF8040059
:1012F000ADF80600ADF808004FF40070ADF80A0034
:101300000020ADF80E000720ADF810006946344803
:1013100003F016FA0121324803F0F5FA4FF40041C8
:10132000304802F0DFFE002505E04FF400612F4851
:1013300002F0DAFE6D1C2E488542F6D34FF40061B0
:101340002A4802F0CFFEFFF799FE00210820FFF7A0
:10135000F2FE0820FFF7D1FE00210C20FFF7EBFE84
:1013600041F6FF110A20FFF7E6FE00202149088020
:101370000D21C020FFF7D3FE0021C120FFF7CFFED3
:101380003321C220FFF7CBFE40F2DC51CA20FFF729
:10139000D2FE1521C420FFF7C2FE1221C620FFF79E
:1013A000BEFE0C21C720FFF7BAFE2178E420FFF72C
:1013B000B6FE6178E520FFF7B2FEA178E220FFF7E4
:1013C000AEFEE178E320FFF7AAFE2179E020FFF7E7
:1013D000A6FE6179E120FFF7A2FE4FF480710BE0D9
:1013E000003C0040000002406E0000200008024067
:1013F00080FC0A00700000200020FFF717FF4FF468
:1014000080711020FFF712FF40F276411420FFF7A1
:101410000DFF04211F20FFF7ACFE09B030BD70B5F1
:1014200005460C460DE01C20FFF75DFE00F00200B3
:1014300038B180211F20FFF79CFE80211F20FFF77D
:101440008CFE1F20FFF74FFE00F008000028EAD1B5
:101450004FF4D0510220FFF76EFE012128A0FFF7C4
:10146000B0FE21462846FFF7ACFE4FF4D0510420D1
:10147000FFF761FE04F5D05081B20620FFF75BFE56
:1014800008211F20FFF775FE70BD2DE9FC410746BE
:101490000C4600253920FFF726FE68B3194801885D
:1014A0000020FFF748FE02211648FFF76EFE0221DA
:1014B00001A8FFF76AFE02216846FFF766FEBDF845
:1014C000000000F0800050B1BDF80400001F85B29C
:1014D000A54200DD254629463846FFF756FE094855
:1014E0000088401EC0F30C0631460C20FFF723FE97
:1014F00040211E20FFF73DFE2846BDE8FC8100008C
:101500000000000070000020F0EE401AB0EE610A0A
:1015100000EE810A704700B5F0EE402AB0EE603A66
:10152000F0EE413AB0EE612AF4EEC22AF1EE10FA82
:101530000AD2B0EE631AF0EE430AB0EE620AFFF789
:10154000E3FFF0EE402A01E0F0EE422AB0EE620A3C
:1015500000BD00B5B0EE402AB0EE603AF0EE412A90
:10156000B1EE621AF0EE430AB0EE420AFFF7CCFF8A
:10157000B0EE402AB5EEC02AF1EE10FA02DDB0EE70
:10158000420A00BD9FEDC60AFBE7F0EE400A9FED60
:10159000C50AF4EEC00AF1EE10FA04DD9FEDC10AAF
:1015A00030EEC00A7047F5EEC00AF1EE10FA04D230
:1015B0009FEDBC0A30EE800AF4E7B0EE600AF1E776
:1015C00000B5B0EE401AF0EE601A012802D131EEFB
:1015D000610A05E031EE610ADFEDB20A30EEC00AC1
:1015E000B0EE402AB0EE420AFFF7CFFF00BD70B563
:1015F0002DED108BB0EE408AF0EE60DAF0EE418A0D
:10160000B0EE61AAF0EE42AAB0EE43DAF0EE639AD1
:101610000446B0EE000A28EE800A10EE101A0846C2
:1016200005F099FC41EC1B0B18EE100A05F093FC39
:1016300041EC1C0B9FED9C1BB0EE4C0AF0EE6C0ACB
:1016400006F02EF8B0EE40EAF0EE60EA53EC1B2B09
:1016500051EC1E0B05F0F7FB41EC1F0B05F0BEFC37
:1016600009EE100A2046F0EE4A0AB0EE6A0AFFF7C9
:10167000A7FF30EE490A10EE106A304605F06BFC09
:1016800041EC1C0BB0EE4C0AF0EE6C0A05F0FCFFCE
:10169000B0EE40BAF0EE60BA9FED850B53EC102B24
:1016A00051EC1B0B05F082FC0CD2F0EE4D1AB0EEA3
:1016B000681AF0EE6D0AB0EE480AFFF72CFFBDEC99
:1016C000108B70BDB4EEE98AF1EE10FA08DDB1EED0
:1016D000681AF0EE6D0AB0EE480AFFF715FFEEE764
:1016E0002046F0EE4A0AB0EE6A0AFFF769FF30EED4
:1016F000490A10EE106A304605F02DFC41EC1C0B37
:10170000B0EE4C0AF0EE6C0A05F0BEFFB0EE40BA47
:10171000F0EE60BA51EC1B0B05F060FC054620466C
:10172000F0EE4A0AB0EE6A0AFFF74AFF30EE490AC5
:1017300010EE106A304605F00EFC41EC1C0BB0EECA
:101740004C0AF0EE6C0A05F09FFFB0EE40BAF0EEE6
:1017500060BA9FED590B53EC102B51EC1B0B05F0AD
:1017600025FC22D32046F0EE4A0AB0EE6A0AFFF7C3
:1017700027FF30EE490A10EE106A304605F0EBFB09
:1017800041EC1B0BB0EE4B0AF0EE6B0A05F07CFF50
:10179000B0EE40CAF0EE60CA9FED490B53EC102B3F
:1017A00051EC1C0B05F0EAFB0AD2F0EE691AB0EE20
:1017B000681AF0EE6D0AB0EE480AFFF7ACFE7EE75D
:1017C000B1EE681AF0EE6D0AB0EE480AFFF79CFE23
:1017D000B0EE408AB7EE000AB4EEC08AF1EE10FA1D
:1017E00003D29FED2F0AB0EE408AB0EE480A66E7BA
:1017F00000B5F0EE401AB0EE602A012804D1B0EE38
:10180000610A01EE020A03E0B0EE610A01EE420A4B
:10181000F0EE402AB0EE620AFFF7B7FE00BD00B559
:10182000B0EE401AF0EE601A012802D131EE210A22
:1018300001E031EE610AB0EE402AB0EE420AFFF755
:10184000A4FE00BD00B5F0EE404AF0EE602AB0EE16
:10185000413A01460846F0EE430AB0EE620AFFF74D
:10186000DEFFB0EE405A0120F0EE450AB0EE640A09
:10187000FFF7A6FEF0EE403A0020F0EE450AB0EE8B
:10188000640AFFF79DFEB0EE404AF4EEC43AF1EE72
:1018900010FA02DDB0EE440A00BDB0EE630AFBE7C9
:1018A000000000000000B443000000000000004001
:1018B0000000000000002440333333333333D33F80
:1018C000333333333333D3BF70B50346B448006882
:1018D000B0FBF3F1B1F1807F00D31DE021F07F4038
:1018E000401E4FF0E022506150170F22002807DA07
:1018F0001407260EAB4C00F00F052D1F665503E0B4
:101900001407250EA84C255400BF00204FF0E022FC
:1019100090610720106100BF70BD1CB50121082037
:1019200002F0AAFD4FF46040009001208DF8040001
:1019300000208DF805008DF806008DF80700694637
:101940009A4802F053FB1CBD1CB50121022002F095
:1019500093FD4FF46040009001208DF804000020BA
:101960008DF805008DF806008DF80700694690484F
:1019700002F03CFB1CBD1CB50121042002F07CFDE3
:101980004FF4E070009001208DF8040000208DF8E5
:1019900005008DF806008DF807006946854802F0BD
:1019A00025FB1CBD00B587B00121084602F064FD8F
:1019B0000C20059002208DF8180000208DF81A00E8
:1019C00001208DF81B0002208DF8190005A97A4826
:1019D00002F00CFB07220221774802F092FB07225B
:1019E0000321754802F08DFB0121480402F077FDC8
:1019F0004FF4165001900020ADF810000C20ADF807
:101A00000E000020ADF80C00ADF80A00ADF808009B
:101A100001A96A4803F0B8F8262000F0B6F80122C0
:101A200040F22551654803F0EDF90121634803F0C8
:101A300033F907B000BD00B587B00121022002F0E4
:101A40001BFD00208DF81A0001208DF81B000220DC
:101A50008DF818004FF44060059002208DF81900B1
:101A600005A9534802F0C2FA07220A21504802F0A1
:101A700048FB07220B214E4802F043FB012188045A
:101A800002F02DFD4FF4614001900020ADF81000F0
:101A90000C20ADF80E000020ADF80C00ADF80A00E7
:101AA000ADF8080001A9464803F06EF8272000F0C1
:101AB0006CF8012240F22551414803F0A3F90121BD
:101AC0003F4803F0E9F807B000BD00B587B0012139
:101AD000084602F0D1FCE020059002208DF81800A5
:101AE0008DF8190000208DF81A008DF81B0005A94B
:101AF000314802F07BFA052211462F4802F001FB23
:101B0000052206212C4802F0FCFA052207212A486A
:101B100002F0F7FA1020059001208DF8180002203D
:101B20008DF8190000208DF81A008DF81B0005A90A
:101B3000214802F05BFA10211F4802F0D3FA01217C
:101B4000080302F0DDFC0020ADF800004FF48270C5
:101B5000ADF802000020ADF80400ADF80600ADF8C5
:101B600008004FF40070ADF80A003820ADF80C0002
:101B70000020ADF80E006946124802F0E1FD012197
:101B8000104802F0C0FE07B000BD00F01F020121A6
:101B900091404209920002F1E022C2F80011704720
:101BA0000401002018ED00E000E400E0000C024019
:101BB00000040240000802400000024000440040CF
:101BC00000480040003001402DED088B05462C46B2
:101BD00055E0D048007828B9206B01F042F9012087
:101BE000CC49087094ED030AD4ED060AB4EEE00A7D
:101BF000F1EE10FA3CD8D4ED060AF0EE601AD4EDFE
:101C0000050AB0EE601AD4ED030AB0EE600ADFED0B
:101C1000C20AFFF780FC84ED030A94ED030A10EE7C
:101C2000101A084605F097F941EC1B0B9FEDBB0B12
:101C300053EC102B05F095F841EC1A0B9FEDB90B06
:101C400053EC102B05F08DF841EC190B53EC192BCC
:101C50009FEDB60B51EC100B05F0F5F841EC180BAD
:101C600005F060F9E0614FF4167000F0EDFF06E05A
:101C700094ED060A84ED030A002001F09CF8A8E721
:101C80002DED088B05462C4657E094ED030AF7EE40
:101C9000000AB4EEE00AF1EE10FA3ADD94F82C00F6
:101CA000D4ED050AB0EE601AD4ED030AB0EE600A76
:101CB000DFED990AFFF74DFC84ED030A94ED030A6A
:101CC00010EE101A084605F046F941EC1B0B9FED8B
:101CD000930B53EC102B05F044F841EC1A0B9FEDDD
:101CE000910B53EC102B05F03CF841EC190B53EC25
:101CF000192B9FED8E0B51EC100B05F0A4F841EC65
:101D0000180B05F00FF9E0614FF4167000F09CFF1E
:101D100013E09FED880A84ED030A206B01F04BF875
:101D200000207C49087094F82E0018B1A188A068A2
:101D300002F0DAF9002001F03EF8A6E72DED088B5D
:101D400082B005462C4677E001F084F90190714895
:101D5000007828B9206B01F084F801206D490870E3
:101D600094ED030AB5EEC00AF1EE10FA02DC94F825
:101D70002D00E0BB012084F82D0094F82C00D4ED58
:101D8000040AF0EE603AD4ED060AB0EE603AD4ED03
:101D9000090AB0EE602AD4ED080AF0EE601AD4ED1C
:101DA000050AB0EE601AD4ED030AB0EE600ADFED6A
:101DB000612ADFED590AFFF71AFC84ED030A94ED5E
:101DC000030A10EE101A084605F0C5F841EC1B0B8B
:101DD0009FED520B53EC102B04F0C3FF41EC1A0B98
:101DE0009FED500B53EC102B04F0BBFF00E014E010
:101DF00041EC190B53EC192B9FED4C0B51EC100BD4
:101E000005F021F841EC180B05F08CF8E0614FF477
:101E1000167101A800F0D4FE0EE0002084F82D0019
:101E20009FED440A84ED030A206B00F0C4FF0020FC
:101E30003849087000F0BFFF86E72DED0A8B054694
:101E40002C469FED3C0AF0EE408A61E094ED030AD7
:101E5000F0EE408AF5EEC08AF1EE10FA58DD18EE89
:101E6000900A05F078F841EC1C0B9FED2C0B53EC1D
:101E7000102B04F076FF41EC1B0B9FED2A0B53EC6B
:101E8000102B04F06EFF41EC1A0B53EC1A2B9FED54
:101E9000270B51EC100B04F0D6FF41EC190B05F0A9
:101EA0009DF808EE100A2188A06802F01BF9BCEE2C
:101EB000C80A10EE100A00F0C7FE2188A06802F0E0
:101EC00013F9BCEEC80A10EE100A00F0BDFE6188DE
:101ED000A06802F0FAF850B1D4ED080A94ED0A1A9D
:101EE00070EE810AB0EE600AFFF74FFB09E0D4ED17
:101EF000080A94ED0A1A70EEC10AB0EE600AFFF704
:101F000044FB84ED080A0C480068801C0A490860FC
:101F10009CE70000780000200AD7233C333333339A
:101F20003333464000000000000000400000000085
:101F3000004CED40000000008400002000F108018A
:101F400041604FF0FF31816000F10801C160016123
:101F500000210160704700210161704742685368A9
:101F60004B6043688B6053689960516041600861C1
:101F700003685B1C0360704710B502460B685C1C6D
:101F80000CB9106907E002F1080000E040684468FD
:101F900024689C42FAD944684C604C68A16088600F
:101FA00041600A611468641C146010BDD0E90132FC
:101FB0009A60D0E901235A6001694A68824201D1DE
:101FC00082684A60002202610A68521E0A607047F5
:101FD0002DE9F04705460E4617464FF0000965B358
:101FE000502001F0D3FC04463CB305FB06F000F1A1
:101FF0000108404601F0CAFC20602068F0B120686A
:1020000005FB060060600020A0632068A060681ED9
:10201000216800FB0610E060E56326644FF0FF30A6
:102020006064A06484F84D7004F11000FFF786FF2F
:1020300004F12400FFF782FFA14602E0204601F0F0
:102040000BFDB9F1000F03D1FEF7F6F800BFFEE774
:102050004846BDE8F08710B5044601F06DFC11E07C
:10206000606A08B9012000E0002050B904F12400A2
:1020700001F0E3F808B101F05BF9A06C401EA06428
:1020800000E002E0A06C0028EADC00BF4FF0FF3067
:10209000A06401F05AFC01F04FFC11E0206908B97E
:1020A000012000E0002050B904F1100001F0C5F853
:1020B00008B101F03DF9606C401E606400E002E090
:1020C000606C0028EADC00BF4FF0FF30606401F074
:1020D0003CFC10BD70B5044601F02EFCA06BE16B1A
:1020E000884201D1012000E00020054601F02DFCCE
:1020F000284670BD70B504460E461546206C38B9AA
:10210000206838BB606801F0A5F90020606021E01C
:102110007DB93146226CA06804F0E0FD216CA06816
:102120000844A060D4E90110884213D32068A0605D
:1021300010E03146226CE06804F0D0FD216CE068CC
:10214000401AE0602168E068884203D2216C606830
:10215000401AE060A06B401CA06370BDFFB583B067
:1021600004460D461E4600271CB9FEF765F800BF61
:10217000FEE70DB9206C08B9012000E0002018B975
:10218000FEF75AF800BFFEE700BF01F0D5FBA06BD9
:10219000E16B884217D2324629462046FFF7AAFF54
:1021A000606A08B9012000E0002038B904F1240079
:1021B00001F043F8012801D101F0B8FB01F0C5FBA3
:1021C000012007B0F0BD059818B901F0BEFB002052
:1021D000F7E71FB901A801F065F8012701F0B5FB89
:1021E00000F0E8FC01F0A8FB606C401C08B900207E
:1021F0006064A06C401C08B90020A06401F0A5FB3D
:1022000005A901A801F05CF8C0B92046FFF762FFFC
:1022100070B104F11000059900F0D2FF2046FFF7DD
:102220001AFF00F01AFC0028AFD101F07FFBACE7E9
:102230002046FFF710FF00F010FCA6E72046FFF74E
:102240000AFF00F00AFC0020BBE770B505465020ED
:1022500001F09CFB0446E4B1002060602060A060B7
:10226000E060A0630120E06300202064401E606401
:10227000A06484F84D5004F11000FFF75FFE04F1F4
:102280002400FFF75BFE00231A4619462046FFF79D
:1022900065FF1CB9FDF7D0FF00BFFEE7204670BD0B
:1022A00070B504461CB9FDF7C7FF00BFFEE701F09B
:1022B00083F8616888420CD1E068401EE060E06805
:1022C00028B900231A4619462046FFF747FF012583
:1022D00000E00025284670BD70B5044601F02CFBD7
:1022E000A06B08B9012000E00020054601F02DFB9D
:1022F000284670BD70B504460D46206870B1216C4B
:10230000E0680844E0606168E068884201D32068C2
:10231000E0602846226CE16804F0E0FC70BD2DE925
:10232000FF4182B004460D461E464FF000081CB91E
:10233000FDF782FF00BFFEE70DB9206C08B9012050
:1023400000E0002018B9FDF777FF00BFFEE700BFEF
:1023500001F0F2FAA06B80B3E76829462046FFF748
:10236000C9FFB6B9A06B401EA063206810B901F088
:1023700023F86060206908B9012000E00020B0B9AE
:1023800004F1100000F059FF012810D101F0CEFA3D
:102390000DE0E760606A08B9012000E0002030B974
:1023A00004F1240000F049FF08B101F0BFFA01F088
:1023B000CCFA012006B0BDE8F081FFE7049818B917
:1023C00001F0C3FA0020F5E7B8F1000F04D1684628
:1023D00000F068FF4FF0010801F0B7FA00F0EAFBE7
:1023E00001F0AAFA606C401C08B900206064A06C7F
:1023F000401C08B90020A06401F0A7FA04A96846AF
:1024000000F05EFF08BB2046FFF766FFB8B120680A
:1024100030B901F091FA606800F0DDFF01F095FA43
:1024200004F12400049900F0CBFE2046FFF713FED0
:1024300000F013FB00288BD101F078FA88E72046E2
:10244000FFF709FE00F009FB82E72046FFF703FED5
:1024500000F003FB0020ADE770B504460E461CB942
:10246000FDF7EAFE00BFFEE700F0A6FF61688842C4
:1024700004D1E068401CE06001250BE000233246F7
:1024800019462046FFF74BFF0546012D02D1E068B3
:10249000401CE060284670BD70B506460D4602221D
:1024A00000213046FFF794FD044604B1A5631CB932
:1024B000FDF7C2FE00BFFEE7204670BD2DE9F047E4
:1024C00004460F46154698461CB9FDF7B5FE00BFF9
:1024D000FEE71DB9FDF7B0FE00BFFEE70FB9206CA7
:1024E00008B9012000E0002018B9FDF7A5FE00BFE3
:1024F000FEE74FF00009FDF79FFEA06BE16B8842FD
:102500001AD2424639462046FFF7F4FDA06C401C23
:1025100068B9606A08B9012000E0002050B904F1F0
:10252000240000F08AFE28B10120286002E0A06C9F
:10253000401CA064012600E00026FDF782FE304624
:10254000BDE8F0872DE9F04104460F4615461CB959
:10255000FDF772FE00BFFEE71DB9FDF76DFE00BF7F
:10256000FEE70FB9206C08B9012000E0002018B97F
:10257000FDF762FE00BFFEE74FF00008FDF75CFECE
:10258000A06BE0B139462046FFF7B4FEA06B401EB9
:10259000A063606C401C68B9206908B9012000E0A4
:1025A000002050B904F1100000F047FE28B10120CE
:1025B000286002E0606C401C6064012600E0002698
:1025C000FDF73FFE3046BDE8F08170B504461CB90A
:1025D000FDF732FE00BFFEE701F0AEF9A56B01F09A
:1025E000B4F9284670BD70B504461CB9FDF724FE49
:1025F00000BFFEE7A56B284670BD014600200BE03A
:102600003D4A02EBC00252688A4204D100223A4B92
:1026100043F8302002E0401C0828F1D300BF704787
:1026200010B504461CB9FDF707FE00BFFEE72046C3
:10263000FFF7E3FF206801F00FFA204601F00CFAE3
:1026400010BD014691F84C00704780F84C1070475F
:10265000014691F84D00704770B504461CB9FDF76E
:10266000EBFD00BFFEE7A06B08B9012000E00020F1
:102670000546284670BD70B504461CB9FDF7DCFD63
:1026800000BFFEE7A06BE16B884201D1012000E0B2
:1026900000200546284670BD024600200BE0164B80
:1026A00053F8303033B9144B43F8301003EBC00308
:1026B0005A6002E0401C0828F1D300BF704770B593
:1026C00004460D4601F038F9606C401C08B9002042
:1026D0006064A06C401C08B90020A06401F035F9CA
:1026E000A06B20B9294604F1240000F08CFD20469F
:1026F000FFF7B1FC70BD00000802002010B50024F7
:1027000007E004EB8401F94A02EB8100FFF716FCB5
:10271000641C052CF5D3F648FFF710FCF548FFF7CD
:102720000DFCF548FFF70AFCF448FFF707FCF448F6
:10273000FFF704FCEE48F3490860EE48F2490860F0
:1027400010BD2DE9F04104460E4615469846069FF9
:102750000A22314604F1340004F0F0FA00213D2051
:102760000155052D00D30425E562A564201DFFF762
:10277000F2FB04F11800FFF7EEFB2461C5F1050040
:10278000A0616462BDE8F08170B505460E464C203C
:1027900001F0FCF8044694B11EB9A80001F0F6F867
:1027A00000E030462063206B20B9204601F054F948
:1027B000002404E0A900A522206B04F0A1FA204621
:1027C00070BD2DE9FF4F81B0804615469A46DDE980
:1027D0000E6BB8F1000F03D1FDF72EFD00BFFEE731
:1027E000052E01D2012000E0002018B9FDF724FDDC
:1027F00000BFFEE728461099FFF7C6FF0446002CED
:1028000064D0681E216B01EB800929F0070909F0EB
:10281000070008B9012000E0002018B9FDF70CFD01
:1028200000BFFEE7009532462046119B0299FFF754
:1028300088FF52464146484601F042F82060BBF10D
:10284000000F01D0CBF8004001F076F8AF480068E7
:10285000401CAE490860AE48006840B9AC4804600E
:102860000846006801280CD1FFF748FF09E0A94895
:10287000006830B9A6480068C06AB04201D8A448D0
:102880000460A549E06A0968884202D9A249E06A61
:102890000860A24800682064A0480068401C9F4966
:1028A00008609F49E06A0968884202D99C49E06A49
:1028B0000860E16A01EB81018C4A02EB8100211D75
:1028C000FFF74CFB012701F040F801E04FF0FF3724
:1028D000012F09D18F48006830B18D480068C06A67
:1028E000B04201D201F022F8384605B0BDE8F08FC1
:1028F00070B5044601F020F885480068844200D194
:10290000002414B98248006800E020460546281DCE
:10291000FFF74CFBA86A18B105F11800FFF746FB5A
:10292000291D7648FFF71AFB7E480068401C7D4948
:1029300008607A480068401C7849086001F005F892
:102940007448006810B10CB900F0F0FF70BD70B5AC
:1029500075480068002873D174480068401C7349AA
:1029600008600846006868BB66480068006808B9E7
:10297000012000E0002018B9FDF75EFC00BFFEE773
:1029800060480568604800685E4908605E48056008
:1029900067480068401C664908605A48006800683B
:1029A00008B9012000E0002020B14FF0FF3061495C
:1029B000086006E053480068C068C4685D49606804
:1029C000086000BF594800685A490968884236D3F0
:1029D00000BF4C480068006808B9012000E00020F2
:1029E00020B14FF0FF305349086027E045480068A8
:1029F000C068C46865684D480068A84202D24D4866
:102A000005601BE0201DFFF7D1FAA06A18B104F1A0
:102A10001800FFF7CBFA4249E06A0968884202D9F8
:102A20003F49E06A0860E16A01EB81012F4A02EB4D
:102A30008100211DFFF792FACBE701E000BF06E01D
:102A40003D480068401C3C490860FDF71AFD3A48C3
:102A5000006808B9FDF715FD70BD70B50025324856
:102A6000006818B9FDF7E8FB00BFFEE700F064FF5F
:102A70002D480068401E2C49086008460068002860
:102A800075D122480068002871D0002621E01A483C
:102A9000C068C46804F11800FFF788FA201DFFF72A
:102AA00085FA1F49E06A0968884202D91C49E06A30
:102AB0000860E16A01EB81010C4A02EB8100211DF3
:102AC000FFF74CFA1249E06A0968C96A884200D3E4
:102AD00001260948006808B9012000E0002000280C
:102AE000D5D01548006800B12FE033E0480200203F
:102AF000AC020020C0020020D4020020E802002026
:102B0000FC0200208C000020900000209800002093
:102B100088000020A8000020A0000020BC000020A9
:102B2000A400002094000020AC0000209C000020A5
:102B3000B8000020C0000020B0000020FFF707FF11
:102B4000FB480068401EFA490860F9480068002800
:102B5000F4D10126012E03D0F6480068012805D1E2
:102B600001250020F349086000F0E0FE00BF00F0FE
:102B7000ECFE284670BD10B50446EF48006844607E
:102B8000EE480068844207D2EB480168091DEC4812
:102B90000068FFF7F1F90CE0E7480168091DE94812
:102BA0000068FFF7E9F9E8480068844201D2E64886
:102BB000046010BDE5480068401CE44908607047A7
:102BC0002DE9F04104460E464FF000081CB9FDF710
:102BD00033FB00BFFEE70EB1012000E0002018B972
:102BE000FDF72AFB00BFFEE7FFF7E4FF2068851929
:102BF000D24920680968884209D92068A8420FD9BB
:102C0000CE48006885420BD94FF0010808E02068E3
:102C1000A84203D8C9480068854201D94FF001088D
:102C20002560B8F1000F07D0C3480068001DFFF70A
:102C3000BDF92846FFF79FFFFFF70FFF07460FB9C3
:102C400000F074FEBDE8F08170B5044600267CB14A
:102C5000FFF7B0FFB94800680519B7480068001DC4
:102C6000FFF7A4F92846FFF786FFFFF7F6FE0646B2
:102C70000EB900F05BFE70BD70B5044600F05CFE5E
:102C800014B9AD48006800E020460646F56A00F039
:102C90005CFE284670BD2DE9F04106460D464FF01A
:102CA0000008052D01D2012000E0002018B9FDF731
:102CB000C3FA00BFFEE7052D00D3042500F03CFE5B
:102CC0009D480068864200D1002616B99A480068DF
:102CD00000E030460446A76CAF4232D0BD4203D973
:102CE0002EB14FF0010802E00EB94FF00108E16A81
:102CF000A06C884200D1E562A564C5F10500A06121
:102D000007EB8701924A02EB81016069884213D187
:102D1000201DFFF74BF98F49E06A0968884202D904
:102D20008C49E06A0860E16A01EB8101884A02EBA4
:102D30008100211DFFF712F9B8F1010F01D100F058
:102D4000F5FD00F002FEBDE8F08110B57F48006897
:102D500018B10120774908602CE00BE07D4800683D
:102D600018B9FDF769FA00BFFEE77A480068401E0F
:102D7000784908607748006800EB8000744951F892
:102D800020000028EAD07349096801EB8101704AEC
:102D900002EB810041684968416000F10801426826
:102DA0008A4202D14168496841604168C968624A03
:102DB000116000BF10BD70B5044600F0BDFD5E4857
:102DC0000068844200D1002414B95B48006800E028
:102DD00020460546281DFFF7E9F8A86A18B105F155
:102DE0001800FFF7E3F8291D5B48FFF7B7F800F07C
:102DF000ACFD8CB95948006810B100F097FD0BE0AC
:102E00005548006856490968884203D100204A495C
:102E1000086001E0FFF799FF70BD70B50546002618
:102E20002C461DB9FDF708FA00BFFEE74A49606964
:102E3000884201D1012000E0002080B14949A06A08
:102E4000884201D1012000E00020012807D0A06ABB
:102E500008B9012000E00020012800D101263046F9
:102E600070BD70B505461DB9FDF7E6F900BFFEE778
:102E70002C4644B330480068844224D000F05CFD06
:102E80002046FFF7CAFF01281BD1201DFFF78EF84F
:102E90003049E06A0968884202D92E49E06A086030
:102EA000E16A01EB81012A4A02EB8100211DFFF753
:102EB00055F82149E06A0968C96A884201D300F0DF
:102EC00035FD00F042FD70BD2DE9F04105460026BC
:102ED0001DB9FDF7B1F900BFFEE72C460027FDF74D
:102EE000ABF92046FFF799FF012843D11748006846
:102EF000D0BB1149E06A0968C96A884201D3012040
:102F000000E000200646201DFFF750F81149E06A56
:102F10000968884202D90F49E06A0860E16A01EB5A
:102F200081010B4A02EB8100211DFFF717F821E018
:102F3000B0000020B4000020880000209C00002089
:102F4000900000208C000020C0000020AC00002079
:102F500048020020A4000020FC020020A80000205D
:102F600098000020D4020020FFE704F11801F8487F
:102F7000FEF7F4FFFDF765F93046BDE8F08110B5C6
:102F80000446206B00F068FD204600F065FD10BD92
:102F900070B5F048006818B3FFF70CFEEE48006803
:102FA00008B9012000E000200546FFF756FDBDB935
:102FB00000F0C2FCE848C068C468201DFEF7F6FFB8
:102FC000E6480068401EE5490860E2480068401E87
:102FD000E049086000F0B9FC2046FFF7D0FF00BFD1
:102FE00070BD00BFFFF7D4FFDD480068012801D99C
:102FF00000F09CFCFDF74FFAF4E71FB500200090AD
:103000000190029003468222D6A10390D748FFF791
:10301000D8FB0446012C02D100F0E9FB0446012C48
:1030200009D1FDF709F90120D14908600020D149F3
:10303000086000F05DFC1CB9FDF7FEF800BFFEE77C
:103040001FBD10B5FDF7F8F80020C949086000F071
:103050006CFC10BD10B500F06FFCC648046800F0B1
:1030600074FC204610BD70B50025FDF7E5F8C14899
:103070000468FDF7E6F8204670BDB8480068704760
:103080000146002002E0491C421C90B20A78A52AA1
:10309000F9D0800870472DE9FE4381460C4616465C
:1030A000204641684968416000F1080142688A424F
:1030B00002D14168496841604168CF6800BF20463D
:1030C00041684968416000F1080142688A4202D1C2
:1030D0004168496841604168CD68286BFFF7D0FFBF
:1030E0008046286CE96A334605F13402CDE90018C0
:1030F0000290A1A1A54804F0F1F9A449484603F0C3
:1031000011FEBD42DBD1BDE8FE8370B50546FFF779
:1031100051FD002028709EA1284603F003FE9D4823
:103120000068441C00BF641E04EB84008C4951F805
:10313000200008B9012000E0002040B904EB840021
:10314000874A02EB800152222846FFF7A4FF002C99
:10315000E9D191480068006808B9012000E000202A
:1031600028B942228C4801682846FFF794FF8B4813
:103170000068006808B9012000E0002028B9422258
:10318000864801682846FFF786FF7348006808B93B
:10319000012000E0002020B944226F492846FFF7B3
:1031A0007AFF7F48006808B9012000E0002020B9BC
:1031B00053227B492846FFF76EFFFFF74EFC70BD98
:1031C00070B505460C461DB9FDF736F800BFFEE7A1
:1031D0007448016818312846FEF7CEFE7148006831
:1031E000001DFEF7E3FE601C30B96E480168091D42
:1031F0006B48FEF7B3FE05E05E48006806193046EE
:10320000FFF7B9FC70BD70B504460D461CB9FDF75B
:1032100013F800BFFEE76348016818312046FEF747
:103220009DFE60480068001DFEF7C0FE5148006822
:1032300046193046FFF79FFC70BD70B50646F06832
:10324000C4681CB9FCF7F8FF00BFFEE704F11800E2
:10325000FEF7ACFE54480068A0B9201DFEF7A6FE9C
:103260005249E06A0968884202D95049E06A086018
:10327000E16A01EB81013A4A02EB8100211DFEF770
:103280006DFE04E004F118013148FEF767FE454980
:10329000E06A0968C96A884201D3012500E0002577
:1032A000284670BD10B504461CB9FCF7C5FF00BF29
:1032B000FEE73F48006820602E480068606010BD4F
:1032C00070B504460D461CB9FCF7B6FF00BFFEE71B
:1032D0001DB9FCF7B1FF00BFFEE700F02DFB286829
:1032E000401C08B900261FE031492068096888425F
:1032F00006D0204960680968884201D8012613E099
:103300001C4960680968081A296888420BD2286835
:10331000184A61681268511A401A28602046FFF75F
:10332000C1FF002600E0012600F00FFB304670BD13
:103330000120204908607047014611B10A46506CCF
:1033400000E00020704708B1024651647047000059
:10335000D402002094000020E80200209800002001
:103360004802002049444C4500000000E32F0008BB
:10337000A80000209C000020257309092563092569
:10338000750925750925750D0A0000001003002038
:103390000D0A0000A00000208C00002090000020FA
:1033A000FC02002088000020AC000020A4000020C7
:1033B000B8000020B4000020384908687047384938
:1033C000096809B9002005E03649096809B90120F2
:1033D00000E00220704770B505462C461DB9FCF789
:1033E0002BFF00BFFEE72D49E06A0968C96A8842E1
:1033F0002FD22A480068C06AC0F10500A061E16AC6
:1034000001EB8101284A02EB81016069884201D108
:10341000012000E00020C0B1201DFEF7C7FD1F48BD
:103420000068C06AE0622149E06A0968884202D9FE
:103430001E49E06A0860E16A01EB81011A4A02EB69
:103440008100211DFEF78AFD03E014480068C06A70
:10345000E06270BD70B505462C46EDB1A16CE06A26
:10346000884219D0201DFEF7A1FDA06CE062E06A41
:10347000C0F10500A0610D49E06A0968884202D9DF
:103480000A49E06A0860E16A01EB8101064A02EB41
:103490008100211DFEF762FD70BD00008800002044
:1034A000A8000020AC00002048020020A40000205A
:1034B0002DE9F04104460D4616461F464FF0000820
:1034C00065602461B5420CD8F01BA169884202D323
:1034D0004FF0010811E0211DF0480068FEF74CFD97
:1034E0000BE0BE4204D2BD4202D34FF0010804E01B
:1034F000211DEB480068FEF73FFD4046BDE8F08126
:103500002DE9FE4305460E4617461C46DDF8288089
:103510004FF00009E348006808B300960197029550
:10352000ACB9FFF74CFF012808D100234246694699
:10353000DC480068FEF712FE814610E000231A46C0
:103540006946D8480068FEF709FE814607E0002377
:1035500022466946D3480068FEF7B0FF81464846D8
:10356000BDE8FE832DE9F84381462BE0CC48006896
:10357000C0680568CA480068C068C468201DFEF7B6
:1035800015FD2046616A8847E06901281AD1A069C3
:103590004619AE4207D966602461211DC048006803
:1035A000FEF7EAFC0EE0002003462A4601460090A2
:1035B0002046FFF7A5FF07461FB9FCF73DFE00BFF9
:1035C000FEE700BFB6480068006808B9012000E0C7
:1035D00000200028CAD0B248D0F80080AF48006868
:1035E000AF490860AD48C0F80080BDE8F88370B509
:1035F0000446FFF72FFD0546AB480068854206D21A
:10360000A9480068FFF7AEFF0120206001E000201C
:103610002060A5480560284670BD70B586B002A838
:10362000FFF7E5FF064650E0059C44B1606908B924
:10363000012000E0002010B9201DFEF7B7FC039820
:1036400030B1012826D0022825D003283BD136E00E
:103650000498A2698118034632462046FFF728FFE6
:10366000012816D12046616A8847E069012810D1F7
:10367000002000900498A1694218002319462046B2
:10368000FFF73EFF05461DB9FCF7D6FD00BFFEE77C
:1036900000BF19E018E00498A061A06908B10120FA
:1036A00000E0002018B9FCF7C7FD00BFFEE7A069E5
:1036B0008119334632462046FFF7FAFE04E02046E1
:1036C00000F0CAF900E000BF00BF00231A4603A9BA
:1036D00074480068FEF723FE0028A5D106B070BD2F
:1036E000F8B505460F466E480068C068C468201DDE
:1036F000FEF75CFCE069012817D1A06941192B464F
:103700003A462046FFF7D4FE01280ED1002003469A
:103710002A46014600902046FFF7F2FE06461EB9F3
:10372000FCF78AFD00BFFEE700BF2046616A8847BC
:10373000F8BDF8B504460E46FFF73CFA6846FFF7B9
:1037400056FF05460098A0B946B9AC4206D8FFF727
:1037500084F929462046FFF7C3FF0CE0611B51485E
:103760000068FEF7ACFFFFF778F920B900F0DEF84B
:1037700001E0FFF772F9F8BD0146494A1268126884
:103780000AB9012200E000220A600A6822B9444A0C
:103790001268D268106800E00020704708B500BFCA
:1037A0006846FFF7E9FF044620460099FFF7C1FF8E
:1037B000FFF733FFF4E710B500F0BEF839480068B2
:1037C00090B93A48FEF7BAFB3948FEF7B7FB3748DD
:1037D0003349086036483149086000220C210A202C
:1037E000FEF7F6FB2F49086000F0AFF810BD1FB5DB
:1037F0000024FFF7E0FF2B48006868B10020022397
:10380000CDE90030029003464FF4827229A1039063
:103810002A48FEF7D6FF04461CB9FCF70DFD00BF91
:10382000FEE7204604B010BD2DE9F04706460D46E0
:1038300017469846DDF820904DB900240DB10120BF
:1038400000E00020A0B9FCF7F7FC00BFFEE728204D
:1038500000F09CF804465CB1FFF7ADFF2660A5615F
:10386000E761C4F82080C4F82490201DFEF773FBA4
:103870002046BDE8F08770B50446264600F05CF8A7
:10388000706908B1012000E00020054600F05DF8F5
:10389000284670BD01460A46106A7047C8000020DD
:1038A000C4000020CC000020D000002044030020F1
:1038B00058030020546D7220537663009D37000832
:1038C00008384FF080730360001F0160001F002361
:1038D000036014380260001FDB1E0360203870474D
:1038E00040F6EF204FF0E021486107200861704763
:1038F00010B52348006840F470002149086008466C
:10390000006840F070400860FFF7EAFF00201D49A2
:103910000860FCF75FFC1C48006840F040401A4912
:103920000860FCF74DFC002010BD70474FF0805040
:1039300013491C390860704710B5FCF77DFC11482D
:103940000068401C0F49086010BD10B50D480068A4
:10395000401E0C4908600846006808B9FCF771FC75
:1039600010BD10B54FF0805005491C390860002487
:10397000FCF762FCFEF7EBFFFCF763FC10BD0000F8
:1039800020ED00E0D400002034EF00E02DE9F0410C
:1039900004464FF00008FFF70DF93F48006898B95A
:1039A0003E493F4A1160002151604FF470513D4A39
:1039B00051600021116039484FF470514160114647
:1039C000016001203449086044B1103404F007005C
:1039D00020B104F00700C0F108000444002C31D0ED
:1039E000B4F5705F2ED22E4F3846056801E02F46A1
:1039F0002D686868A04202D228680028F7D12948BB
:103A000085421FD0386800F110082868386068685F
:103A1000001B202810D92E196868001B70606C608C
:103A200071681F4800E00068026852688A42FAD351
:103A300002683260066000BF1B4968680968081A9E
:103A400019490860FFF709F8B8F1000F01D1FCF738
:103A50002CFD4046BDE8F08170B506463546B6B14E
:103A6000103D2C46FFF7A6F861680D4800E000689D
:103A7000026852688A42FAD30268226004600A49E6
:103A800060680968084408490860FEF7E6FF70BDF1
:103A90000548006870477047EC0000207003002064
:103AA000D8000020E0000020E800002010B501212F
:103AB000080200F08DFD00214FF4807000F088FDB9
:103AC00010BD30B50246002000235068F84C20405D
:103AD0000D790C6844EA0524204350609068F54C49
:103AE0002040D1E903542C438D682C434D7944EA9E
:103AF000450420439060D06A20F470000C7D641E61
:103B0000E4B2234340EA0350D06230BD002101609B
:103B1000017141718160C1600161012101757047CE
:103B20000021E54A1168E54A1140D0E900231A4313
:103B300083681A43C3681A431143E14AC2F8041365
:103B400070470021016041608160C160704721B110
:103B5000826842F00102826003E0826822F0010282
:103B6000826070470A4600214168D64B19401143D4
:103B7000416070474162826270470A460021416895
:103B800021F01F0111434160704738B1CA490968EB
:103B900041F40001CA4AC2F8041306E0C6490968A4
:103BA00021F40001C64AC2F80413704738B1C24973
:103BB000096841F48001C24AC2F8041306E0BE4914
:103BC000096821F48001BE4AC2F804137047F0B5B9
:103BD00004460D4600200021092D11DDE068A5F105
:103BE0000A0606EB4607072606FA07F18843A5F101
:103BF0000A0606EB460603FA06F10843E0600CE00D
:103C0000206905EB4507072606FA07F1884305EB0F
:103C1000450603FA06F108432061072A0FDA606BB4
:103C2000561E06EB86071F2606FA07F18843561E26
:103C300006EB860605FA06F10843606322E00D2ACA
:103C40000FDA206BD61F06EB86071F2606FA07F150
:103C50008843D61F06EB860605FA06F10843206363
:103C600010E0E06AA2F10D0606EB86071F2606FAB1
:103C700007F18843A2F10D0606EB860605FA06F168
:103C80000843E062F0BD816841F080418160704787
:103C9000014600208A6802F480020AB1012000E097
:103CA0000020704721B1826842F48062826003E0A4
:103CB000826822F480628260704721B1826842F09B
:103CC0000202826003E0826822F002028260704792
:103CD00010B50A4600210023416821F46041531EBB
:103CE00041EA4331416010BD21B1426842F40062B3
:103CF000426003E0426822F400624260704701467D
:103D0000C86C80B270476C48001D0068704721B1D4
:103D1000826842F48072826003E0826822F48072DA
:103D20008260704721B1826842F40072826003E0D1
:103D3000826822F400728260704738B15E49096877
:103D400041F400515E4AC2F8041306E05A4909687A
:103D500021F400515A4AC2F804137047F0B50446E2
:103D60001546002000220026092911DDE068A1F196
:103D70000A0707EB470C072707FA0CF29043A1F15B
:103D80000A0707EB470703FA07F21043E0600CE06D
:103D9000206901EB410C072707FA0CF2904301EB75
:103DA000410703FA07F210432061A06BC0F30156EC
:103DB000EF1C06F1010CA7EB0C0707EB870C1F2784
:103DC00007FA0CF29043EF1C06F1010CA7EB0C076D
:103DD00007EB870701FA07F21043A063F0BD10B5A7
:103DE0000A4600210023816B21F44011531E41EA51
:103DF0000351816310BD08B5002300930090009B20
:103E00000B440093009B1A6008BD0A46002181689C
:103E100021F470211143816070470A4600218168B6
:103E200021F44011114381607047816841F48001A1
:103E300081607047014600208A6802F480020AB15E
:103E4000012000E00020704721B1426842F4806206
:103E5000426003E0426822F480624260704721B110
:103E6000426842F48052426003E0426822F4805289
:103E70004260704708B5024600200090009201F1B0
:103E80002800009B184400900098006880B208BD8C
:103E900010B50B460021D9B2012404FA01F11AB180
:103EA00044680C43446002E044688C43446010BDA5
:103EB000FFFEFFFCFDF7FFC004230140E030FCFFE4
:103EC00000200140FFFD3FFF0246002013680B4029
:103ED0000BB1012000E000207047CA430260704728
:103EE00070B502460020002300240B1255680126FD
:103EF0008E4005EA060415681D4015B10CB101207D
:103F000000E0002070BD00220A12D3430360704716
:103F100010B504468C48844208D10121084600F0BF
:103F200000FB0021012000F0FCFA5EE0874884429B
:103F300008D10121022000F0F4FA0021022000F053
:103F4000F0FA52E08248844208D10121042000F0B6
:103F5000E8FA0021042000F0E4FA46E07D488442BB
:103F600008D10121082000F0DCFA0021082000F02F
:103F7000D8FA3AE07848844208D10121102000F0B4
:103F8000D0FA0021102000F0CCFA2EE073488442D1
:103F900008D10121202000F0C4FA0021202000F0E7
:103FA000C0FA22E06E48844208D10121402000F08E
:103FB000B8FA0021402000F0B4FA16E069488442C3
:103FC00008D10121802000F0ACFA0021802000F00F
:103FD000A8FA0AE06448844207D10121801500F064
:103FE000A0FA0021A01500F09CFA10BDF0B50A4619
:103FF00000210023002400BF3DE0012505FA01F364
:10400000156805EA03049C4234D105684F00032675
:10401000BE40B543056015794E00B540066835438E
:1040200005601579012D02D01579022D16D185680C
:104030004F000326BE40B543856055794E00B5401C
:10404000866835438560456801268E40B5434560E6
:10405000456896798E40B6B235434560C5684F00D5
:104060000326BE40B543C560D5794E00B540C6684D
:104070003543C560491C1029BFD3F0BD4FF6FF7111
:1040800001600021017141718171C171704708B5F2
:104090004FF480320092009A0A430092009AC26163
:1040A000C161009AC261C2690092C269009208BDF2
:1040B0000246002013690B400BB1012000E00020F4
:1040C00070470146086980B2704702460020536974
:1040D0000B400BB1012000E0002070470146486909
:1040E00080B2704701837047418370470AB10183F2
:1040F00000E0418370474161704742694A40426134
:104100007047F0B5002300244D07ED0E02FA05F3C9
:10411000CE1000F1200555F826504E07F70E0F2659
:10412000BE40B543CF1000F1200646F82750CE1010
:1041300000F1200555F8265045EA0304CE1000F1A1
:10414000200545F82640F0BD000002400004024072
:1041500000080240000C024000100240001402401F
:1041600000180240001C024000200240FA4800688B
:1041700040F00100F84908600020F7490831086064
:10418000F5480068F5490840F3490860F448091DFE
:104190000860081F006820F48020091F08600020C4
:1041A000ED490C31086070470021EB4A921C1170F8
:1041B00011460870704710B5014600220023002008
:1041C0004A11012A02D1E44C236808E0022A03D1F3
:1041D000E14C7034236802E0DF4C7434236801F052
:1041E0001F02012494401C400CB1012000E000207B
:1041F00010BD38B5002000900024002500BF3120FC
:10420000FFF7D9FF05460098401C00900098B0F5D4
:10421000A06F01D0002DF2D03120FFF7CCFF08B104
:10422000012400E00024204638BD01460020CA4A8F
:10423000106820F0F80040EAC10010607047C949DA
:10424000086070470021C44A703211701170012853
:1042500002D004280AD104E00121BF4A7032117053
:1042600005E00521BC4A7032117000E000BF00BFBC
:104270007047BD490860704770B5049C41EA8215DB
:104280000126C6EB530645EA0645054345EA0465A3
:10429000B14E361D356070BDB24908667047820167
:1042A00042EA0172AC4B84331A607047AD498866AC
:1042B0007047AC49C864704702460020A64B0833DB
:1042C000186820F0EC6042EA01031843A24B08335F
:1042D00018607047024600209F4B0833186820F092
:1042E000784042EA010318439B4B0833186070473B
:1042F00001460020984A0832106820F00300084365
:104300001060704794480830006800F00C00704757
:1043100001460020904A0832106820F0F00008435F
:1043200010607047014600208B4A0832106820F464
:10433000E05008431060704701460020864A08326A
:10434000106820F4604040EAC10010607047F0B58A
:104350000021002200240225002602237E4F083778
:104360003F6807F00C0121B1042905D0082937D195
:1043700005E07E4F076036E07D4F076033E0764F03
:104380003F1D3F68C7F38056734F3F1D3F6807F0DE
:104390003F036EB1764FB7FBF3F7DFF8BCC10CF10A
:1043A000040CDCF800C0CCF3881C07FB0CF40CE018
:1043B0006E4FB7FBF3F7DFF8A0C10CF1040CDCF88B
:1043C00000C0CCF3881C07FB0CF4634F3F1D3F6813
:1043D000C7F301477F1C7D00B4FBF5F7076002E0DF
:1043E000624F076000BF00BF5B4F08373F6807F0B0
:1043F000F00109095F4F7A5C0768D7404760564F64
:1044000008373F6807F4E051890A5A4F7A5C4768D9
:10441000D7408760504F08373F6807F46041490B29
:10442000544F7A5C4768D740C760F0BD002100F464
:104430004072B2F5407F0AD1474A0832116821F430
:10444000F8114D4A02401143434A08321160424A72
:1044500070321268C0F30B031A433F4B70331A607B
:10446000704741494439086070473F494039086006
:10447000704742490860704739B1374A3032126894
:104480000243354B30331A6006E0334A303212684B
:104490008243314B30331A60704739B12E4A34327F
:1044A000126802432C4B34331A6006E02A4A343235
:1044B00012688243284B34331A60704739B1264A58
:1044C000383212680243244B38331A6006E0224A1D
:1044D000383212688243204B38331A60704739B142
:1044E0001D4A4032126802431B4B40331A6006E0FB
:1044F000194A403212688243174B40331A607047A2
:1045000039B1154A443212680243134B44331A60DE
:1045100006E0114A4432126882430F4B44331A605A
:10452000704739B10C4A1032126802430A4B1033FB
:104530001A6006E0084A103212688243064B1033B4
:104540001A607047E1B1044A143212680243024B08
:1045500014331A6019E0000000380240FFFFF6FE35
:104560001030002400004742800E47420024F4002F
:1045700000127A00F0000020FFFCFF0F5C014742B0
:104580005B4A126882435A4B1A60704739B1584AE5
:10459000121D12680243564B1B1D1A6006E0544A56
:1045A000121D12688243524B1B1D1A60704739B1AD
:1045B0004F4A0C32126802434D4B0C331A6006E02E
:1045C0004B4A0C3212688243494B0C331A607047D5
:1045D00039B1474A103212680243454B10331A6012
:1045E00006E0434A103212688243414B10331A608E
:1045F000704739B13E4A3C32126802433C4B3C336F
:104600001A6006E03A4A3C3212688243384B3C3327
:104610001A60704739B1364A403212680243344B4F
:1046200040331A6006E0324A403212688243304B0F
:1046300040331A60704739B12D4A44321268024340
:104640002B4B44331A6006E0294A443212688243F5
:10465000274B44331A60704739B1254A4C321268EF
:104660000243234B4C331A6006E0214A4C32126855
:1046700082431F4B4C331A60704739B11C4A503289
:10468000126802431A4B50331A6006E0184A50323F
:1046900012688243164B50331A60704739B1144A7E
:1046A000D21F12780243124BDB1F1A7006E0104A29
:1046B000D21F127882430E4BDB1F1A7070470C48D2
:1046C0006030006840F080700949603108607047D0
:1046D00001460020064A083A12680A400AB1012041
:1046E00000E0002070470249891F087070470000F1
:1046F0001438024010B50446F748844208D101211D
:104700008014FFF765FF0021A014FFF761FF16E09A
:10471000F248844208D101210014FFF748FF00212C
:104720002014FFF744FF0AE0ED48844207D101213D
:10473000C013FFF73CFF0021E013FFF738FF10BD67
:1047400010B50022028802F441520B884C882343A2
:104750008C882343CC8823430C8923434C892343EF
:104760008C892343CC8923431A430280838B4FF2E5
:10477000FF74234083830B8A038210BD2DE9F04F21
:10478000002502230024012700220026944690469B
:104790009146B0F81CA04FF2400B0AEA0B0AA0F8B1
:1047A0001CA04FF0020AA0F820A0858BD1F808A029
:1047B000BAF1020F01D100BF6CE0B1F804A0BAF168
:1047C000000F01D1012700E00227DFF818A3DAF873
:1047D00000A00AF4000ABAF1000F09D0DFF804A320
:1047E000DAF800A02AF4000ADFF8F8B2CBF800A04B
:1047F000DFF8F0A20AF17C0ADAF800A0CAF3881800
:10480000DFF8E0A20AF17C0ADAF800A0CAF3027924
:10481000DFF8D0A2AAF1040ADAF800A00AF03F0CEF
:10482000DFF8C4A2BAFBFCFA0AFB08FABAFBF9F6F5
:10483000B1F806A0BAF5007F0ED14FEA162A0AEBAE
:104840008A0A4FEA4A0AD1F808B0BAFBFBFA0AF121
:10485000050A1FFA8AF20FE04FEA471AB6FBFAFA86
:104860000AEB8A0A4FEA4A0AD1F808B0BAFBFBFA07
:104870000AF1050A1FFA8AF24FF00A0AB2FBFAF2AD
:1048800002F00104A2EB040ACAF34F034FF6FF7AC9
:104890000AEA0424022B01DBFF2B01DD02230024A2
:1048A000B1F806A04AEA040A4AEA030AA0F820A0DE
:1048B000B1F804A0B1F80CB04AEA0B0AB1F802B0A2
:1048C0004AEA0B0AB1F800B04AEA0B0A4AF4006A55
:1048D0004AEA05058583BDE8F08F0021018041800B
:1048E0008180C180018141818181C1810721018253
:1048F00070470021018041808180C1800221816058
:1049000000218181704721B1028842F0400202807B
:1049100004E002884FF6BF731A400280704721B14D
:10492000828B42F48062828304E0828B4FF6FF33F5
:104930001A408283704702884FF2FF731A40028048
:1049400002880A4302807047B1F5804F04D1028883
:1049500042F48042028004E002884BF6FF731A4062
:10496000028070474FF6FF62914204D0028842F401
:104970008072028004E002884FF6FF631A400280D2
:10498000704721B1828842F00402828004E082886C
:104990004FF6FB731A408280704721B1828842F043
:1049A0001002828004E082884FF6EF731A40828002
:1049B000704730B500220023848B4FF240052C4015
:1049C000848302240484828B0C88B4F5007F01D098
:1049D0000C8814B94FF4807308E00C88B4F5407F5C
:1049E00003D00C88B4F5807F00D100238C888D899A
:1049F0002C434D882C431C4344F40064224382839F
:104A000030BD0146888970478181704721B1028895
:104A100042F40052028004E002884DF6FF731A400F
:104A200002807047018841F480510180704702463E
:104A30000020012901D0108B00E0908A70470146C8
:104A4000088A70471AB183880B43838002E0838809
:104A50008B438380704730B5002400230C1101255F
:104A6000A540ABB21AB185881D43858002E08588D8
:104A70009D43858030BD0246002013890B400BB159
:104A8000012000E000207047CA4302817047F0B562
:104A90000246002000240023002501F00F07012614
:104AA000BE40B4B20B1101269E40B3B2968806EA0E
:104AB00003051689264016B10DB1012000E0002043
:104AC000F0BD10B5002201F00F040123A3409AB2FB
:104AD000D343038110BD0000003001400038004086
:104AE000003C00400838024000127A0010B504462D
:104AF000F748844208D101211020FFF769FD002109
:104B00001020FFF765FD3EE0F248844209D1012103
:104B10004804FFF74CFD00214FF40030FFF747FD3C
:104B200031E0ED48844209D101218804FFF73FFDBF
:104B300000214FF48020FFF73AFD24E0E74884424B
:104B400009D10121C804FFF732FD00214FF40020F4
:104B5000FFF72DFD17E0E248844209D10121080545
:104B6000FFF725FD00214FF48010FFF720FD0AE03C
:104B7000DC48844207D101212020FFF729FD0021D4
:104B80002020FFF725FD10BD2DE9FF4705460E4605
:104B90000024A14600BFA046B08900B100BF2C8A06
:104BA00024F44054F08804432C82AC8941F20C6018
:104BB0008443B08831890843718908430443AC8138
:104BC000AC8A24F44074B0890443AC826846FFF791
:104BD000BEFBBF48854202D0C248854202D1DDF803
:104BE0000C9001E0DDF80890A88900F4004040B185
:104BF00009EBC90000EB091031684900B0FBF1F77F
:104C000007E009EBC90000EB091031688900B0FB2F
:104C1000F1F76420B7FBF0F004012009642101FBE7
:104C20001078A88900F4004040B1322000EBC800A1
:104C3000B0FBF1F000F00700044308E0322000EB85
:104C400008106421B0FBF1F000F00F0004432C8148
:104C5000BDE8FF874FF41651016000218180C180BB
:104C600001810C21418100218181704710B50246EC
:104C70000020108A20F470600B884C8823438C88B5
:104C80002343CC8823431843108210BD00210180A8
:104C900041808180C180704721B1828942F40052F5
:104CA000828104E082894DF6FF731A408281704749
:104CB000028B02F47F420283028B0A430283704715
:104CC00021B1828942F40042828103E08289C2F3E9
:104CD0000E028281704721B1828A42F40062828290
:104CE00004E0828A4FF2FF731A4082827047C1F358
:104CF00008028280704701468888C0F30800704728
:104D0000028A4FF6F0731A400282028A0A43028234
:104D1000704721B1828942F00202828104E08289D7
:104D20004FF6FD731A408281704782894FF2FF73FC
:104D30001A40828182890A4382817047028A4FF633
:104D4000DF731A400282028A0A430282704721B14D
:104D5000028A42F48042028204E0028A4BF6FF7328
:104D60001A4002827047818941F0010181817047B8
:104D700021B1828A42F00802828204E0828A4FF6E0
:104D8000F7731A4082827047028BD2B20283028B81
:104D900042EA01220283704721B1828A42F0200256
:104DA000828204E0828A4FF6DF731A408282704763
:104DB00021B1828A42F01002828204E0828A4FF698
:104DC000EF731A4082827047828A4FF6FB731A4053
:104DD0008282828A0A438282704721B1828A42F0AB
:104DE0000202828204E0828A4FF6FD731A408282B8
:104DF00070471AB1838A0B43838202E0838A8B4314
:104E000083827047F0B50346002400260025002069
:104E100040F66A17B94200D100BF1846C1F34214E8
:104E200001F01F06012707FA06F5012C01D10C300D
:104E300004E0022C01D1103000E014301AB10768F0
:104E40002F43076002E00768AF430760F0BD0246EA
:104E50000020B1F5007F00D100BF13880B400BB1DB
:104E6000012000E00020704701F40072B2F5007FDD
:104E700000D100BFCA430280704770B502460024CB
:104E800000230025002040F66A16B14200D100BF81
:104E9000C1F3421501F01F03012606FA03F3012DA9
:104EA00002D19689334006E0022D02D1168A3340A2
:104EB00001E0968A33400C12012606FA04F41688A3
:104EC000344013B10CB1012000E0002070BD00009F
:104ED000001001400044004000480040004C0040E9
:104EE000005000400014014010B50022002340F69D
:104EF0006A14A14200D100BF0A1201249440A3B257
:104F0000DC43048010BD000010B50A480088401C36
:104F10000849088040210848FFF7A6FF10BD7047E8
:104F200000BFFEE700BFFEE700BFFEE700BFFEE7F1
:104F30007047000000010020004400400CB5002034
:104F4000019000907248006840F480307049086019
:104F500000BF6F48006800F4003000900198401CCA
:104F60000190009818B90198B0F5A06FF1D1684888
:104F7000006800F4003010B10120009001E0002032
:104F800000900098012846D161484030006840F008
:104F900080505F49403108605E48006840F48040BE
:104FA0005C4908605A48083000685949083108606F
:104FB0000846006840F4004008600846006840F475
:104FC000A05008605448091F0860081F006840F09E
:104FD0008070091F086000BF4D48006800F0007035
:104FE0000028F9D040F205604C4908604848083074
:104FF000006820F003004649083108600846006850
:1050000040F00200086000BF41480830006800F02E
:105010000C000828F8D10CBD10B53D48006840F0E0
:1050200001003B49086000203949083108603848D0
:1050300000683B490840364908603A48091D086045
:10504000081F006820F48020091F086000203049F4
:105050000C310860FFF772FF4FF0006032490860C2
:1050600010BD70B500200022022300240221284D2B
:1050700008352D6805F00C0020B1042806D008285A
:1050800034D107E0294D2A4E356033E0294D284EB2
:1050900035602FE01E4D2D1D2D68C5F380541C4D2D
:1050A0002D1D2D6805F03F0154B1224DB5FBF1F5E2
:1050B000174E361D3668C6F3881605FB06F209E062
:1050C0001A4DB5FBF1F5124E361D3668C6F388163B
:1050D00005FB06F20E4D2D1D2D68C5F301456D1C17
:1050E0006B00B2FBF3F5124E356003E00F4D104E2E
:1050F000356000BF00BF064D08352D68C5F30315A8
:105100000D4E705D0A4D2D68C540094E356070BD6D
:1051100000380240007000400A694007003C02402D
:10512000FFFFF6FE1030002408ED00E00024F4003C
:105130000401002000127A000801002009480168DB
:1051400041F4700101600848804708480047FEE7C5
:10515000FEE7FEE7FEE7FEE7FEE7FEE7FEE7FEE727
:10516000FEE7000088ED00E0195000088901000802
:105170000160828070472DE9F04104460F461646D3
:105180001D462888A188884214DA2A883168206858
:1051900001F0A4FD2988206808442060A08829889F
:1051A000401AA08029883068084430600020288098
:1051B000BDE8F0812888A188884212D12A88316808
:1051C000206801F08BFD29882068084420600020B9
:1051D000A0802988306808443060002028800120A1
:1051E000E6E7A2883168206801F078FDA188206890
:1051F000084420602888A188401A2880A188306847
:10520000084430600020A0800120D1E730B504467A
:1052100013E010680578206805701068401C106065
:105220002068401C20601888401E1880A088401EFE
:10523000A0808D4201D1022030BDA088002802DD6F
:1052400018880028E5DC188808B90020F4E70BE08E
:10525000106805781888401E18801068401C10607F
:105260008D4201D10320E7E718880028F0DC0120F7
:10527000E2E710B5044694F82000062804D1BC48A3
:10528000007800F00400A8B1208ABA490968498A68
:10529000884206DDB74A1268518A606801F0F5FA63
:1052A00003E0218A606801F0F0FA062084F820000B
:1052B000012010BD0020FCE7014691F820000628DF
:1052C00021D1AB48007800F00100E0B1088AA94A7A
:1052D0001268528A90420CDD088AA64A1268528AE5
:1052E000801A0882A34A48681268528A10444860AB
:1052F00005E00A8A486810444860002008820120BE
:1053000081F8200070470020FCE72DE9F0410446B9
:105310000E4615460127608810B1CF2826D110E02F
:105320002DB900BF002060800120BDE8F0816660DB
:105330002582002084F8200012E000BFCF2060808A
:1053400000BF2046FFF7B8FF80462046FFF791FFD9
:1053500008EA0008B8F1000F01D10020E5E700BF1E
:10536000208A0028E9DC002084F8200000270020A3
:1053700060800220D9E72DE9F04104460D4616462B
:105380000127608810B1EE2831D11BE02DB900BF94
:10539000002060800120BDE8F0813046A8472082CF
:1053A000754800686060002084F8200000BF7048E5
:1053B000007800F0040008B13046A84700BFEE2096
:1053C000608000BF2046FFF777FF80462046FFF74A
:1053D00050FF08EA0008B8F1000F01D10020DAE719
:1053E00000BF208A0028E2DC002084F8200000278B
:1053F000002060800220CEE701468A8B088B101ABD
:1054000080B270470146488A002801DD01207047BC
:1054100091F82000022804D1032081F82000002008
:10542000F5E75348007800F0020008B10120EEE7EC
:105430000020ECE770B504460D460126608820B1D7
:10544000A0F21B10002835D10EE0A08B82B204F12F
:105450001400E168FFF78CFE00BF608AA0B900BFAE
:1054600040F21B10608000BF2046FFF7CBFF08B959
:10547000002070BD00BF022084F820003E48006874
:10548000A0603E480088608204F1120304F1080223
:105490002946981CFFF7BAFE00F002000028DCD075
:1054A0002046FFF7A9FF28B9002084F8200000BF9C
:1054B0006080DEE70026002060800220D9E770B51A
:1054C00004460125608818B1B0F59B7F37D10EE006
:1054D000A08B82B204F11400E168FFF749FE00BF1F
:1054E000608AB8B900BF4FF49B70608000BF20464F
:1054F000FFF788FF08B9002070BD00BF20A001F0B1
:10550000DDFF022084F820001B480068A0601B48D3
:1055100000886082A08B81B204F1120304F10802BA
:10552000981CFFF728FE0128DAD12046FFF764FF18
:1055300028B9002084F8200000BF6080DCE7002547
:10554000002060800220D7E770B504460E4615465D
:10555000002084F820006082E660E561AAB231464E
:1055600004F11400FFF704FE00202080608070BD6D
:10557000380100203C0100202C01002034010020D3
:1055800057616974656420666F72206E6577646127
:1055900074610A00FB4908807047C2780A44FA4BDC
:1055A000DA70827802EB21229A7042785A7002787F
:1055B0001A701A469278B2EB212F0ADA1A465278FC
:1055C000521C5A701A4652781AB91A461278521C4E
:1055D0001A70ED4AD278CBB29A4212DAEA4A92783D
:1055E000521CE94B9A701A46927852B91A46527870
:1055F000521C5A701A4652781AB91A461278521C1E
:105600001A707047F0B50B46144619461E19751EE0
:105610000BE04E780F7806EB0726B2B28618B0B2D0
:10562000904201DA461CB0B2891CA942F1D3A942CA
:105630000AD10E78002707EB0626B2B28618B0B260
:10564000904201DA461CB0B2F0BD0146080240EAC1
:10565000212080B2704770B504460D462A46214687
:105660000020FFF7CFFF0646FFF7EFFF70BD10B534
:105670001422C6490020FFF7C5FF044614B94FF6AF
:10568000FF7010BD2046FFF7E0FFFAE770B5044653
:10569000BE480E38417C007C01EB0020143885B2F6
:1056A000281986B20822B9490C313046FFF7AAFF03
:1056B00006462A46B54914313046FFF7A3FF064691
:1056C00016B94FF6FF7070BD3046FFF7BEFFFAE720
:1056D00010B50620FFF7DAFF10BD10B51120FFF757
:1056E000D5FF10BD0020AA4908700AE00020A94992
:1056F000A74A127821F81200A5480078401CA44956
:105700000870A34800782828F0DB0020A049087022
:105710000FE000209E490978C1EBC10101EB410176
:105720009D4A02EB8101487699480078401C9849CF
:105730000870974800782828EBDB4FF48060974981
:105740000880704730B504460D4600BF9348008876
:10575000401C9249088008460088B0F5FA4F02DBE9
:105760004FF48050088000208949087017E088486D
:105770000078C0EBC00000EB4000874901EB8002DD
:10578000507E38B185480088FFF75FFF91888842D6
:1057900000D1DBE77E480078401C7D4908707C48DA
:1057A00000782828E3DB00220020794908701AE0FD
:1057B00077480078C0EBC00000EB4000764901EB71
:1057C0008003587E08B91A4611E0587E072805D193
:1057D0001AB1987E917E884200DD1A466C480078A6
:1057E000401C6B4908706A4800782828E0DB00BF3D
:1057F0000AB9002030BD0220507669480078107345
:1058000067484178517381789173C178D1734FF4AF
:10581000B77050829082012010820020D076012043
:10582000907603201076002090751020D0755B488C
:105830000088FFF70AFF9080D58000BF2088108085
:105840006088508000BF1046D4E70021504A117094
:1058500012E050494E4A127831F81210814206D1B6
:1058600000214C4A4A4B1B7822F8131070474849D4
:105870000978491C464A1170454909782829E8DB0E
:1058800000BFF3E70021424A117010E04149404A4D
:10589000127831F8121029B93E493D4A127821F8A0
:1058A000120070473A490978491C394A1170384941
:1058B00009782829EADB00BFF3E710B50446214642
:1058C000384800680830FFF768FE2F4800783549EF
:1058D000096808722C4841783248006841722A48A9
:1058E00081783048006881722748C1782D48006867
:1058F000C17210BD70B505462A4804682348283097
:105900002949086029490860032D0ED1607E00F006
:105910000F00032807D1208A28B9082024490870DD
:10592000FAF79BFDFEE300F0A9BF022D7DD11C48D4
:10593000C078401CC0B21A49C87078B9084680784F
:10594000401CC0B2887048B908464078401CC0B2BC
:10595000487018B908460078401C087000201549A6
:10596000088015490880607E072802D0607E0528DF
:1059700024D1A07E401CA076A07E78287BD1002078
:10598000607678E040010020480100207E3F002042
:105990004C010020384E0020184100204601002014
:1059A000420100203C0100202C0100203001002099
:1059B000380100203401002036010020607E0028DC
:1059C00059D0208A00284BD0A17E481EA0760029FD
:1059D00051D1E07E082808D0607E022802D0607E87
:1059E00001280ED1E07E05280BD1002060768020B2
:1059F000FE490870FAF731FD1421FD4880F82F1098
:105A0000FEE3E07E042801DD042000E0E07E0321C7
:105A10008140A176E07E401CE076F648C08C401CB8
:105A200081B2F448C184607E00E025E000F00F0000
:105A3000092820D2DFE800F01F05060B111F121FF6
:105A400013003BE30021EA4880F82F103BE30420D9
:105A5000E6490870FAF701FDFEE300BF00BFFCE372
:105A6000607E00F00F00032805D10820DF49087090
:105A7000FAF7F3FC56E756E7DE484088401CDD495C
:105A80004880DB48807B45280BD008460088401CB6
:105A900008800846C088401CC880D7A0FAF793FD4C
:105AA00041E7D348417C007C01EB0020DC490988B8
:105AB000884207DCCE48417C007C01EB0020D849BD
:105AC000088003E0D7A0FAF77EFD2CE7C848007DE8
:105AD00000F03F0010B9C648407D60B1C54800885D
